:02000004C0D06A
:10000000B0B5AAB062B62848002404602748012190
:1000100001702748047002F0FDFD2648B0222146F9
:1000200002F0A8FE1FAD284604F02EFD28852249C7
:10003000084202D01FA8048524E01FA802F0EDFDAD
:1000400003F08CF8212001A914AD00242A46234690
:1000500003F010FC194878442822294603F0AAFB33
:100060001EA901250D70164878442A4603F0A2FB0C
:10007000204604F03DFB284604F03AFB02F03EFB2C
:1000800002F08CFB02F038FF1FA9884203D102F076
:1000900035FF02F0C2FD1FA8008D002802D100200C
:1000A0002AB0B0BD02F023FF341900203819002017
:1000B0003019002080180020FFFF00002A4F0000A8
:1000C000144F0000F0B5F1B0174605910490002BD5
:1000D0007CD01878597809020143987800040843C5
:1000E000D97803220A4012060243679288081979D8
:1000F00089010143587982030A4399790720CC0882
:100100000140890511436891D979490121431A7A3F
:1001100052030A43597A1F240C406405144369941E
:1001200049099A7AD2000A43D97ACC0214431A7B3D
:100130003F2195090A40D20422436A925A7B9200D9
:100140002A439C7BA4021443DA7B920422436B92E1
:100150001A7C5C7C240214439A7C12042243DC7CCB
:10016000012525402D0615436C9562081C7DE40190
:1001700014435A7DD20322439C7D2040C005104386
:100180006D90E008DA7D52010243187E400310436F
:100190005A7E0F241440640504436E9410099A7E1D
:1001A00012010243D87E000310431A7F1140090553
:1001B00001436F919009597F89000143987F800224
:1001C0000843D97F89040143709106E009206790B4
:1001D00067A8001D242104F0C1FB01201390539057
:1001E00053AD281D2421169104F0B8FB3FAC282103
:1001F0002046129104F0B2FB283567A803952946E2
:100200002CC82CC12CC82CC16CC86CC11398499047
:1002100020462C30169904F0A1FB283402941F20AC
:10022000079708903818099000200690C1430725C9
:100230000A910998067830464840E84013990840EA
:100240001299484353A915910C183FA916910F18FC
:100250000C9735A80D90214611953A4601F02FF9DB
:100260002BA80B9021463A4601F052FCEE40139821
:1002700006401298464310961598811916988519CC
:100280000F9521A815900E460E962A4601F017F9F3
:1002900017A8149031462A4601F03AFC20460B9FDD
:1002A0003946159A00F0EEFB0C9D28460D9E31460E
:1002B000149A00F0E7FB304621462A4601F0FFF889
:1002C000384621462A4601F023FC2046314601F0FB
:1002D00021F930463C46214601F01CF967AA284620
:1002E000314600F0CFFB30463746159901F012F940
:1002F0002046149901F00EF90E98394622462646FA
:1003000000F0C0FB2B983599081A2B902C98369941
:10031000081A2C902D983799081A2D902E983899F4
:10032000081A2E902F983999081A2F9030983A99D8
:10033000081A309031983B99081A319032983C99BC
:10034000081A329033983D99081A339034983E99A0
:10035000081A3490FC4A0F9C2046314601F02AFDD1
:10036000169810994058359940183590606836991C
:1003700040183690A068379940183790E06838994F
:1003800040183890206939994018399060693A9935
:1003900040183A90A0693B9940183B90E0693C991D
:1003A00040183C90206A3D9940183D90636A3E9900
:1003B00059183E9120463946324600F063FB0A99AF
:1003C000119A551E002A00D033E70899481E0029CB
:1003D000079F00D025E735AC3FA9204600F062FA20
:1003E00067A853A9224600F04DFBD8481590D8487D
:1003F00016900498002800D1B3E0709815998842AF
:10040000139A154600DC069D679C16998C4211468E
:1004100000DC0699689E6A9B129333406C9F1F40D4
:100420006E9B3B400340159A9342139B00D0069B62
:100430001940699F6B9B11933B406D9A1492134036
:100440006F9A1A40169B13339A4201D0069A139260
:10045000139A11400D43C00F281A13224243D31799
:10046000B109F517AD060D43B606E1173419694118
:10047000A2185941049E3270130A7370130CB370A2
:10048000120EF270CA177B0BFC17E4041C43FB042A
:10049000C918544131710A0A72710A0CB271090EFD
:1004A000F171E217129DEB0CE917490319436B0335
:1004B000E318514133721A0A72721A0CB2721A0E90
:1004C000F272CB17119DAC0EEA1792012243AC01D8
:1004D00061185A4131730B0A73730B0CB373090E15
:1004E000F173D1176C9BDC179A184C41149DEB09E2
:1004F000E917490619436B06D21861413274130A91
:100500007374130CB374120EF274CB176E9C650BDC
:10051000E217D2042A43E40461185A4131750B0AE8
:1005200073750B0CB375090EF175D3176F9C250D00
:10053000E117090329432403A21859413276130A0B
:100540007376130CB376120EF2764006709A101A78
:10055000800140183077010A7177010CB177000EE5
:10056000F0770598002800D18FE12BAD67AC2846C5
:10057000214600F0CFFF35AEC54F304614962146D8
:100580003A4601F017FC2C9836990A1835982B99A1
:100590002C922D9A379B9A182D922E9A389B9A1846
:1005A0002E922F9A399B9A182F92309A3A9B9A182A
:1005B0003092319A3B9B9A183192329A3C9B9A180E
:1005C0003292339A3D9B9A183392349A3E9B9A18F2
:1005D00034924018401C2B9030462946224600F0A9
:1005E00051FA21AE3046029900F05CF92846039991
:1005F000324600F047FA2C9868990A1867982B99A8
:100600002C922D9A699B9A182D922E9A6A9B9A1871
:100610002E922F9A6B9B9A182F92309A6C9B9A1855
:100620003092319A6D9B9A183192329A6E9B9A1839
:100630003292339A6F9B9A183392349A709B9A181D
:1006400034924118C91909312B9109386790304605
:10065000214600F05FFF20462946324600F012FA9C
:10066000369868990A1A359867996892379A699BFB
:100670009A1A6992389A6A9B9A1A6A92399A6B9B6B
:100680009A1A6B923A9A6C9B9A1A6C923B9A6D9B4F
:100690009A1A6D923C9A6E9B9A1A6E923D9A6F9B33
:1006A0009A1A6F923E9A709B9A1A7092081A794918
:1006B00040186790784A7A441498214600F0E2F98D
:1006C000012000243E99159A9142024600DC224600
:1006D000359B169DAB42054600DC2546369E389F6D
:1006E00037403A9E3E403C9F37400F40159EB742F0
:1006F000064600D026463540379E399F37403B9E00
:100700003E403D9F3740169E1336B742064600D006
:10071000264635402A43C90F1143034099420599A3
:10072000079F17D100205D4E7E4402460A9B43433B
:10073000FC5CF55CAA18121BCA541212401E034638
:100740002033F3D10FE0C04641DB0100FFFFFF0182
:10075000ECFFFF0300200A9B4343FA5CCA54401E8F
:1007600002462032F7D120256846056035AE4C4C54
:100770007C4430462A46234601F0F4F9304615946D
:1007800021462A4604F0F0F83FA8294604F0E6F88E
:1007900053AE30461695294604F0E0F80120149037
:1007A000307021260A9B3FA9012E55D0059A901939
:1007B000C0180021C943405C761E0028F3D0D01831
:1007C000119035A819461346471853A820301390A6
:1007D0003FA82030129069460E6035A9169C22462B
:1007E00001F0C0F920460A9B441E53A9002833D0CB
:1007F000385C00282046F7D0684603601498801BB8
:10080000169943183FA853A9129A01F097FA611C50
:1008100068461691016035AB13980599324601F090
:10082000A1F9119A0A9B1D4675433FA9002D13D0CB
:1008300018466843105C6D1C0028F6D068460360BB
:10084000331B53A83FA9139A01F078FA0A9845433D
:100850006E1C059B1298BEE72022059D28461E4669
:1008600004F082F81F2028560028159F0DDA00207A
:10087000014632464243BB5CAC5C6118C918A954BE
:100880000912401E02462032F3D171B0F0BDC046BD
:10089000066D0700387EA6FD8A4400004044000033
:1008A000B0430000F0B5B3B00F4600901FAD28462E
:1008B00000F030FE15AE3046294600F02BFE29AC84
:1008C0002046314600F026FE304621463A4600F0EA
:1008D000D9F8204631462A4600F0D4F82846214669
:1008E00000F018FE0BAF38462946324600F0CAF831
:1008F0002846394600F00EFE3046294600F00AFE32
:100900002846314600F006FE3046294600F002FE39
:100910002846314600F0FEFD304629463A4600F0B2
:10092000B1F82846314600F0F5FD3846294600F07A
:10093000F1FD04261FAC0BAD2046294600F0EAFD70
:100940002846214600F0E6FD761EF3D11FAC0BAD24
:1009500015AA2046294600F095F82846214600F0C1
:10096000D9FD01A8294600F0D5FD09260BAC01AD43
:100970002046294600F0CEFD2846214600F0CAFD5B
:10098000761EF3D10BA801A91FAA00F07BF805265B
:100990001FAC0BAD2046294600F0BCFD2846214681
:1009A00000F0B8FD761EF3D11FAC0BAD15AE20469E
:1009B0002946324600F066F83046214600F0AAFD8E
:1009C0002846314600F0A6FD182615AC0BAD204692
:1009D000294600F09FFD2846214600F09BFD761E2B
:1009E000F3D115AC0BAD1FAA2046294600F04AF8FA
:1009F0002846214600F08EFD01A8294600F08AFD18
:100A000031260BAC01AD2046294600F083FD284677
:100A1000214600F07FFD761EF3D10BA801A915AA8F
:100A200000F030F8192601AC0BAD2046294600F045
:100A300071FD2846214600F06DFD761EF3D115AEFE
:100A40000BA91FAD30462A4600F01CF82846314657
:100A500000F060FD3046294600F05CFD2846314636
:100A600000F058FD3046294600F054FD2846314636
:100A700000F050FD29AA0098294600F003F833B091
:100A8000F0BD0000F0B58DB015460E460B90E8693C
:100A9000C1177268D31703F035FF07460C916869D8
:100AA000C117F268D31703F02DFF0C46C0190A9046
:100AB0000C984441E868C1177269D31703F022FF0C
:100AC0000F460A9908180C9067416868C117F269C7
:100AD000D31703F017FF0C9A10180C907941C00F30
:100AE000490001430A91286AC1173268D31703F0FD
:100AF00009FF07460991A869C117B268D31703F027
:100B000001FF0C46C0190790099844412869C11794
:100B10003269D31703F0F6FE0F46079908180990BB
:100B200067412C46A068C117B269D31703F0EAFEEB
:100B30000D460999081809907D4120682746C1177C
:100B40000896326AD31703F0DDFE0C46099908189F
:100B50006C410C99490045180A984441706AC117C4
:100B60007A6A3E46D31703F0CDFE26220692002372
:100B70000C9303F0C7FE28186141FD4B0993820EC8
:100B800018400B9B18628D01154388160A90706AF5
:100B9000C117089F3A68D31703F0B4FE0C46281813
:100BA00007900A984441306AC1177A68D31703F056
:100BB000A9FE0D46079908180A9065413746F8695D
:100BC000C117089CA268D31703F09CFE0E460A9931
:100BD00008180A906E41B869C117E268D31703F08C
:100BE00091FE0D460A9908180A9075417869C11757
:100BF00022692646D31703F085FE0C460A99081889
:100C00000A906C413869C1177269D31703F07AFEF4
:100C10000D460A9908180A906541F868C117B2692B
:100C2000D31703F06FFE0C460A9908180A906C411E
:100C3000B868C117F269D31703F064FE0D460A992C
:100C400008180A9065417868C117326AD31703F013
:100C500059FE0C460A9908180A906C413868C11769
:100C6000726AD31703F04EFE0A9A10186141C14B05
:100C70000793420E18400B9B5862CD01154348164E
:100C80000A90386AC117B268D31703F03BFE0C46CE
:100C9000401904900A984441B869C1173269D317C2
:100CA00003F030FE0D46049908180A906541386932
:100CB000C117B269D31703F025FE0C460A9908182C
:100CC0000A906C41B868C117326AD31703F01AFE54
:100CD0000A9A1018614113220A920C9B03F012FE2B
:100CE000054603913868C1173268D31703F00AFE2E
:100CF00028180490039841410391786AC1177268DB
:100D0000D31703F0FFFD04460291F869C117F2689A
:100D1000D31703F0F7FD0D460019019002984541E5
:100D200078693C46C1177269D31703F0EBFD0F4693
:100D30000199081802906F41E068C117F269D31752
:100D400003F0E0FD0D460299081802907D41274608
:100D50007868C117726AD31703F0D4FD029A10188D
:100D60006941069A0C9B03F0CDFD049A1018039A72
:100D70005141820E099B18400B9B18608C01144353
:100D8000881604907868C1173268D31703F0BAFD4B
:100D90000D462418049845413868C1177268D31766
:100DA00003F0B0FD20180490694103913C46606A4D
:100DB000C117B268D31703F0A5FD07460291206A58
:100DC000C117F268D31703F09DFD0D46C0190190BD
:100DD00002984541E069C1173269D31703F092FDCB
:100DE0000F460199081802906F41A069C1177269F6
:100DF000D31703F087FD0D460299081802907D4134
:100E00006069C117B269D31703F07CFD0F460299E0
:100E1000081802906F412069C117F269D31703F0D7
:100E200071FD0D460299081802907D41E068059415
:100E3000C117326AD31703F065FD0F4602990818EF
:100E400002906F41A068C11735466A6AD31703F054
:100E500059FD029A101879410A9A0C9B03F052FD31
:100E6000049A1018039A5141420E079B18400B9B9D
:100E70005860CC01144348160490059EB068C11711
:100E80002A682F46D31703F03DFD0D462418049819
:100E900045413068C117BA68D31703F033FD2018F5
:100EA000049069410391306AC1173C462269D31707
:100EB00003F028FD07460291B069C117A269D31754
:100EC00003F020FD0D46C719029845413069C1174E
:100ED000226AD31703F016FD381869410A9A0C9B51
:100EE00003F010FD0F460499081804900398474139
:100EF0006068C11734466268D31703F003FDC20F60
:100F0000490011434000049A10180490794103915C
:100F1000606AC117089FFA68D31703F0F3FC05460F
:100F20000291E069C1177A69D31703F0EBFC0E4612
:100F300040190190029846416069C117FA69D317B8
:100F400003F0E0FC0D460199081802907541E06835
:100F50002646C1173C46626AD31703F0D3FC029AB7
:100F600010186941069A0C9B03F0CCFC049A03E02C
:100F7000FFFFFF03FFFFFF011018039A5141820E8C
:100F8000099B18400B9B98608D01154388160490AF
:100F9000F0683746C11722682646D31703F0B2FC23
:100FA0000C462818039004984441B868C117726829
:100FB000D31703F0A7FC0D46039908180490654168
:100FC0003C466068C117B268D31703F09BFC0F461C
:100FD0000499081804906F412068C117F268D3176C
:100FE00003F090FC049A1018049079410391606A10
:100FF000C1173269D31703F085FC07460291206AB6
:10100000C1177269D31703F07DFC0D46C01901901A
:1010100002984541E069C117B269D31703F072FC29
:101020000F460199081802906F41A069C117F26933
:10103000D31703F067FC0D460299081802907D4112
:101040006069C117326AD31703F05CFC0F4602993E
:10105000081802906F412069C117726AD31703F014
:1010600051FC029A101879410A9A0C9B03F04AFC31
:10107000049A1018039A5141420E079B18400B9B8B
:10108000D860CF011743481604902069C117354630
:101090002A68D31703F036FC0E46381803900498DC
:1010A0004641A068C117AA682F46D31703F02AFC4F
:1010B0000D4603990818049075412068C1173A69D4
:1010C000D31703F01FFC049A101804906941039190
:1010D000206AC1173E46B269D31703F013FC0546D8
:1010E0000F46A069C117326A3446D31703F00AFCD1
:1010F000401979410A9A0C9B03F004FC0D460499AF
:101100000818049003984541059EF068C1172746CA
:101110007A68D31703F0F6FB029003917068C11749
:10112000FA68D31703F0EEFB029A8018039A514134
:10113000C20F4E00164340000499081804906E41F7
:10114000059D686AC1177A69D31703F0DBFB02902B
:101150000391E869C117FA69D31703F0D3FB0C4672
:10116000029940180290039844416869C1177A6A4D
:10117000D31703F0C7FB029A10186141069A0C9B23
:1011800003F0C0FB049A10187141820E099B1840AD
:101190000B9B18618F011743881604906869C1176B
:1011A000089C2268D31703F0ADFB0E463818039055
:1011B0000498464128692F46C1176268D31703F087
:1011C000A1FB0D4603990818049075413E46F0684E
:1011D000C117A2682746D31703F094FB0C46049965
:1011E000081804906C41B068C117FA68D31703F06F
:1011F00089FB0D4604990818049065417068C11771
:101200003A69D31703F07EFB0C4604990818049042
:101210006C413068C1177A69D31703F073FB049AE5
:101220001018049061410391706AC1173C46A2698D
:10123000D31703F067FB07460291306AC117E269D2
:10124000D31703F05FFB0D46C0190190029845418A
:10125000F069C117226AD31703F054FB0F460199B6
:10126000081802906F41B069C117626AD31703F082
:1012700049FB029A101879410A9A0C9B03F042FB31
:10128000049A1018039A5141420E079B18400B9B79
:101290005861CD01154348160490B069C11727461F
:1012A0003A68D31703F02EFB0C46281803900498D5
:1012B00044413069C117BA68D31703F023FB0D46C8
:1012C00003990818049065413446A068C1173A692B
:1012D000D31703F017FB0E460499081804906E41CB
:1012E00020682546C1173C46A269D31703F00AFBC4
:1012F0000F460499081804907741206A2646C117C2
:101300002A6AD31703F0FEFA0A9A0C9B03F0FAFA42
:10131000049A10180490794103912C466069C11712
:101320007268D31703F0EEFA07460291E068C1171E
:10133000F268D31703F0E6FA0D46C7190298454143
:101340006068C1177269D31703F0DCFA3818694175
:10135000C20F4F00174340000499081804900398E7
:1013600047412646706AC117089CE269D31703F00B
:10137000C9FA05460391F069C117626AD31703F0F1
:10138000C1FA4019039A5141069A0C9B03F0BAFA2C
:10139000049A10187941820E099B18400B9B9861A2
:1013A0008D01154388160690F069C11722682746FB
:1013B000D31703F0A7FA0C46281804900698444166
:1013C000B069C1177A68D31703F09CFA0D460499E7
:1013D0000818069065417069C117BA68D31703F001
:1013E00091FA0C460699081806906C413069C117AD
:1013F000FA68D31703F086FA0D4606990818069086
:101400006541F068C1173A69D31703F07BFA0C46BF
:101410000699081806906C41B068C1177A69D3170D
:1014200003F070FA0D460699081806906541706839
:10143000C1173C46A269D31703F064FA0F46069918
:10144000081806906F4135462868C117E26926469C
:10145000D31703F057FA0C460699081806907C41FA
:10146000686AC117326AD31703F04CFA0746049131
:10147000286AC117726AD31703F044FAC019049A94
:1014800051410A9A0C9B03F03DFA069A10186141EB
:10149000079A02400B9CE261CA01400E10434916B4
:1014A000226AD31780184B410999014021629901A2
:1014B000800E0843616A401860620DB0F0BD10B53F
:1014C0000B681468E31803604B685468E3184360C2
:1014D0008B689468E3188360CB68D468E318C360B2
:1014E0000B691469E31803614B695469E31843619C
:1014F0008B699469E3188361CB69D469E318C3618C
:101500000B6A146AE3180362496A526A511841620D
:1015100010BD0000F0B58BB00D460A90E869C11708
:101520006A68D31703F0EEF904460E466869C117DE
:10153000EA68D31703F0E6F9001907907141800FAC
:10154000890001430691286AC1172A68D31703F05E
:10155000D9F904460E46A869C117AA68D31703F043
:10156000D1F900197141C20F4E0016434700286996
:10157000C11702460B4603F0C5F90C463F187441EB
:10158000686AC11702460B4603F0BCF9262208928E
:101590000023099303F0B6F938186141079A9200C5
:1015A0008018069A5141FC4B0793820E18400A9B03
:1015B000186288011043059088160690686AC11762
:1015C0002A68D31703F09EF906460F46286AC1170A
:1015D0006A68D31703F096F90C46801904907C4191
:1015E000E869C117AA68D31703F08CF90E4604996D
:1015F0000F186641A869C117EA68D31703F082F98A
:101600000C463F1874412A696869C117D31703F063
:1016100079F938186141C20F490011434000059A19
:101620008018069A5141DD4B0693420E18400A9BE2
:101630005862C8011043491613220492099B03F013
:1016400061F904460F462868C11702460B4603F0AD
:1016500059F92018059079410391286AC117AA68A1
:10166000D31703F04FF907460E46A869C1172A6938
:10167000D31703F047F90C46C71974416869C117BD
:1016800002460B4603F03EF938186141089A099C5E
:10169000234603F037F90E4605990818029003987F
:1016A0004641686AC1176A68D31703F02BF90746E9
:1016B0000591E869C117EA68D31703F023F9C01947
:1016C000059A51414C220592234603F01BF9029AD8
:1016D00010187141820E079B18400A9B18608C01FC
:1016E00014438E1605CDC117D317083D03F00AF930
:1016F000C20F4F0017434000201803907741686ADB
:10170000C117AA68D31703F0FDF806460291286AAC
:10171000C117EA68D31703F0F5F80C468019019059
:1017200002984441E869C1172A69D31703F0EAF81F
:101730000E4601990818029066416A69A869C117A6
:10174000D31703F0DFF8029A10187141089A099C28
:10175000234603F0D7F8039A10187941420E069BEE
:1017600018400A9B5860CE0116434F16A869C1174E
:1017700002460B4603F0C6F8049A234603F0C2F86B
:101780000C46301803907C41A868C1172A68D3170B
:1017900003F0B8F806460F466868C11702460B46C4
:1017A00003F0B0F880197941C20F4E001643400093
:1017B00003990818039066412869C1172A6AD3174C
:1017C00003F0A0F8089A099C234603F09BF80F4603
:1017D0000399081803907741686AC117EA68D3171C
:1017E00003F090F806460291E869C1176A69D317B9
:1017F00003F088F88019029A5141059A234603F0B4
:1018000081F8039A10187941820E079B18400A9BB1
:1018100098608F01174388160290E868C1172A68FC
:10182000D31703F06FF804460E466A68A868C1171C
:10183000D31703F067F800197141C20F4E00164329
:101840004000C019039002984641686AC1172A698E
:10185000D31703F057F807460291286AC1176A693F
:10186000D31703F04FF80C46C71902984441AA69F0
:10187000E869C117D31703F045F838186141089A91
:10188000099B03F03FF8039A10187141420E069B22
:1018900018400A9BD860CE0116434F16A868C1179E
:1018A00002460B4603F02EF80C4636187C41286899
:1018B000C1172A69D31703F025F8C20F4F00174349
:1018C0004000301803906741286AC117AA69D317EE
:1018D00003F018F804460E46E869C11702460B46A5
:1018E00003F010F800197141089A099B03F00AF8F7
:1018F0000C460399081803907C416868C117EA6890
:10190000D31702F0FFFF820F8E0016438000039969
:101910000F1866416869C1176A6AD31702F0F2FFAF
:10192000059A099B02F0EEFF38187141820E079B61
:1019300018400A9B18618E01164388160390686947
:10194000C1172A68D31702F0DDFF07460291286904
:10195000C1176A68D31702F0D5FF0C46C719029861
:101960004441AA68E868C117D31702F0CBFF3818C2
:101970006141C20F4F001743400080190290039845
:101980004741686AC117AA69D31702F0BBFF044632
:101990000E46EA69286A03E0FFFFFF03FFFFFF012D
:1019A000C117D31702F0AEFF00197141089A099EC2
:1019B000334602F0A7FF029A10187941420E069BA7
:1019C00018400A9B5861CC0114434F16286AC1176E
:1019D00002460B4602F096FF049A334602F092FF4D
:1019E0000E46201804907E41A869C1172A68D317B3
:1019F00002F088FF074603912869C117AA68D31728
:101A000002F080FF0C46C71903984441E868C117EB
:101A100002460B4602F076FF38186141C20F4F00B4
:101A20001743400004990818049077416868C1176B
:101A30006A69D31702F066FF820F8C00144380009E
:101A400004990E187C41E869C1176A6AD31702F03D
:101A500059FF059A099B02F055FF30186141820E2B
:101A6000079B18400A9B98618801104304908816D0
:101A70000590E869C1172A68D31702F043FF0646AC
:101A80000F46A869C1176A68D31702F03BFF0C46DE
:101A9000801903907C416869C117AA68D31702F0C6
:101AA00031FF0E4603990F186641EA682869C1178D
:101AB000D31702F027FF38187141C20F4C001443AE
:101AC00040000499461805984441286A6A6AC1177B
:101AD000D31702F017FF089A099B02F013FF301882
:101AE0006141069A02400A9CE261CA01400E10431D
:101AF0004916226AD31780184B4107990140216289
:101B00009901800E0843616A401860620BB0F0BD15
:101B100010B513680C68E31A036053684C68E31A45
:101B2000436093688C68E31A8360D368CC68E31AD7
:101B3000C36013690C69E31A036153694C69E31AC2
:101B4000436193698C69E31A8361D369CC69E31AB1
:101B5000C361136A0C6AE31A0362526A496A891AFA
:101B6000416210BDF0B58DB01D4616460C4604907E
:101B7000129AA8180121C94300230A92012A01914F
:101B800002D81A46184601E01A46405C0A9B591EC4
:101B90000091695C0902014305919E4262D30A9952
:101BA000701A271800200246C043029048420B904A
:101BB0000394A019761E01D1314601E00199415CE0
:101BC00013460C93A05D02021804104308430599C4
:101BD00002F00CFEA3190A99721A521C00290996E8
:101BE000089330D00692002307973C461A460A9E77
:101BF000029F217889183A465A43AA5C4243891ABF
:101C000021700A125B1EF118641C0029F1D10C9995
:101C100051180C9108180499069A8854002002461D
:101C20003B46079F194641436C5C0C9E74432E460D
:101C30007D5CAA183546121B7A541212401E0B996D
:101C40008142EFD104E00C99401804998854029B1A
:101C500008990A7800200870FF18099E0A988642A1
:101C6000039CA6D2009822540DB0F0BDF0B597B0F9
:101C7000039305920E4604462021049102F06EFE65
:101C80000020C54301462A464243B35C059FBF5C22
:101C90007918C91AA1540912401E02462032F2D105
:101CA0001F2020560F21081AC117090F40180011D4
:101CB00000210A462B464B431E4E7E44F65C4643AB
:101CC000E75CBA189219E2541212491E0B462033EF
:101CD000F0D106AE40210291304602F03FFE0121D4
:101CE00068460591016030462146039A049F3B46B1
:101CF00000F024F868460760304620300E4B7B44E5
:101D00003146029AFFF72EFF204631463A4602F04E
:101D10002BFE00210C462A464A4306AB9A5C14432C
:101D2000491E0A462032F6D1002C059800D12046E3
:101D300017B0F0BD662E0000222E0000F0B587B06F
:101D40000292049000241F200393002B2CD00C98A7
:101D500001900020044600900246069404988518DD
:101D600002980592805C019A5043009E32468B1A7D
:101D70001B784343AC1A2778BE19F31823701E1240
:101D8000521E13461F33F2D1069AB218EB7FD218B7
:101D9000CB7F58431018E8770412059A521C039819
:101DA0008242DAD103981F30049A115C0919115448
:101DB00007B0F0BDF0B58BB00A920E460446D717B7
:101DC000306A0896C1173B46069702F09BFD0490C7
:101DD000644A099203461340236205948A01850EE2
:101DE000154388160790706AC1170A9E32463B4613
:101DF00002F088FD4019079A51415B4B0793420E50
:101E0000184003906062C801104349161322002352
:101E1000029302F077FD05460191089F3868C117CB
:101E20003246069C234602F06DFD2818019A514166
:101E3000820E099B1840059E30608D01154388165F
:101E400001907868C1170A9A2346274602F05AFD86
:101E50002818019A5141420E079B18407060CD012D
:101E6000154348160190089CA068C1170A9E324687
:101E70003B4602F047FD2818019A5141820E099B0A
:101E80001840059FB8608D01154388160190E068E1
:101E9000C1173246069C234602F034FD2818019AE9
:101EA0005141420E079B18403E46F060CD0115435C
:101EB00048160190089F3869C1170A9A234602F014
:101EC00021FD2818019A5141820E099B184030616A
:101ED0008D011543881601907869C1170A9F3A460B
:101EE000234602F00FFD2818019A5141420E079B2C
:101EF00018407061CD01154348160190089880691B
:101F0000C1173A46234602F0FDFC2818019A5141B8
:101F1000820E099B18403746B8618D0115438E1615
:101F20000898C069C1170A9A234602F0EBFC2818EA
:101F30007141079A0240FA61CA01400E10434916E6
:101F40003F229206049D95434019029A5141099AF5
:101F500002403A628901800E084303994018786272
:101F60000BB0F0BDFFFFFF03FFFFFF0170B582B0B4
:101F700005781424052D09DC022D17DD032D1BD057
:101F8000042D1BD0052D1BD1402407E0AC1F032CD2
:101F900003D3092D01D00A2D12D18468069D6E4607
:101FA0003560746001F034FC02B070BD012DF5D0D5
:101FB000022D05D11C24F1E72024EFE73024EDE7C2
:101FC000022000F094FF0000B0B50546072028402D
:101FD0000024012813D0022813D1002908D00A4870
:101FE00001F0D0FC68B2002809DA01F0CFFB06E06E
:101FF000412081000448002201F0F0FC0446204604
:10200000B0BD022000F073FF441A002080B501F03B
:1020100019FA80BDF0B585B0F349087801252F0283
:10202000F24E0C282BDC05286FD00C2800D0B1E034
:102030000F46EF4C25760026E6612046183001F069
:1020400047FCE06101F072FBE069FE49884200D183
:1020500067E2002800D164E2F849884200D0F5E147
:1020600001F09CF801F0A0F8A6602068002800D1DB
:1020700057E2E069F349884200D02AE151E20D2895
:102080006AD00E2800D085E0ED4C25760025E5616C
:102090002046183001F01CFCE06101F047FBE069CC
:1020A000B04200D03BE101F079F801F07DF800206A
:1020B000A0602168002900D133E2E169E14A914240
:1020C00020D12EE26168884200D32AE201F070FC40
:1020D000002800D025E2A068E1683825684322681E
:1020E0001018002902D08847002807D0012803D102
:1020F000A06845432068401901F0A4F9A068401C7D
:10210000A06021680029DDD10BE20F46CC4C25767A
:102110000026E6612046183001F0DAFBE06101F0AC
:1021200005FBE069C749884200D1FAE1002800D1E7
:10213000F7E1C249884200D0C2E101F02FF801F076
:1021400033F8A6602068002800D1EAE1E069BD49C3
:10215000884200D0E0E0E4E1BB480078012859D192
:1021600001F0E2FB384255D000F04EFA002800D1D1
:102170000EE201F013F801F017F8B14C0020A06056
:102180002168002900D1CCE1E169AE4A914200D03A
:1021900050E1C6E1AA4C25760025E56120461830BD
:1021A00001F096FBE06101F0C1FAE069B04200D0B5
:1021B000F2E000F0F3FF00F0F7FFA56020680028D0
:1021C00000D1AEE1E0699F49884220D1A9E1606871
:1021D000854200D3A5E101F0EBFB002800D0A0E18F
:1021E000A068E1683825684322681018002902D0E9
:1021F0008847002807D0012803D1A06845432068FC
:10220000401901F01FF9A068451CA560206800284E
:10221000DDD186E1FA4C25760025E56120461830AF
:1022200001F056FBE06101F081FAE069F54988426E
:1022300000D176E1F149884200D17BE1002800D14C
:102240006FE12068002800D165E1A06861688842DC
:1022500000D360E101F0ACFB002800D05BE1A06896
:10226000E1683825684322681018002902D08847A1
:10227000002807D0012803D1A068454320684019F1
:1022800001F0E0F8A068401CA06021680029DDD1C1
:1022900041E16068864200D343E101F089FB0028F8
:1022A00000D03EE1A068E168382568432268101834
:1022B000002902D08847002807D0012803D1A06850
:1022C00045432068401901F0BDF8A068461CA6608F
:1022D00020680028DDD124E16068864200D320E137
:1022E00001F066FB002800D01BE1A068E1683825FA
:1022F000684322681018002902D08847002807D0B8
:10230000012803D1A06845432068401901F09AF8DC
:10231000A068461CA66020680028DDD101E10646C1
:102320006069002808D064216428024600D30A4668
:10233000801A606100D12EE1B2488642304600D159
:10234000EFE0002800D1ECE02068002800D1E2E0B6
:10235000A0686168884200D3DDE001F029FB002815
:1023600000D0D8E0A068E1683825684322681018DA
:10237000002902D08847002807D0012803D1A0688F
:1023800045432068401901F05DF8A068401CA0603A
:1023900021680029DDD1BEE02068002800D1BAE024
:1023A000A0686168884200D3B5E001F001FB002815
:1023B00000D0B0E0A068E1683825684322681018B2
:1023C000002902D08847002807D0012803D1A0683F
:1023D00045432068401901F035F8A068401CA06012
:1023E00021680029DDD196E000180020555010B07A
:1023F000801800206168884200D392E001F0D8FA8A
:10240000002800D08DE0A068E16838256843226884
:102410001018002902D08847002807D0012803D1CE
:10242000A06845432068401901F00CF8A068401CE2
:10243000A06021680029DDD173E0C046555010B07E
:1024400080180020445010B030190020A08804905B
:1024500020680390FD79BB797E793A79FF78E1684D
:10246000684607604160120232431B022B43039807
:10247000049900F019FF206800284CD0A06861681A
:10248000884248D201F094FA002844D1A068E1685B
:102490003825684322681018002902D08847002890
:1024A00007D0012803D1A06845432068401900F0F7
:1024B000C9FFA068401CA06021680029DFD12AE084
:1024C0002069002803D0F978490800F0FDFF206852
:1024D000002820D0A068616888421CD201F068FA08
:1024E000002818D1A068E1683825684322681018D0
:1024F000002902D08847002807D0012803D1A0680E
:1025000045432068401900F09DFFA068401CA06072
:1025100021680029DFD16068A168814201D301F000
:1025200047FA01F045FA002801D100F0EDFC012046
:1025300005B0F0BD00F032FE00F036FEA560206868
:102540000028EED0E0692F4988421ED1E9E7606893
:102550008542E6D201F02CFA0028E2D1A068E168B9
:102560003825684322681018002902D088470028BF
:1025700007D0012803D1A06845432068401900F026
:1025800061FFA068451CA56020680028DFD1C8E76E
:1025900000F062F8C5E7F437676100F0FFFD00F076
:1025A00003FEA5602068002800D1C5E6E069154952
:1025B000884220D1C0E66068854200D3BCE601F0C5
:1025C000F7F9002800D0B7E6A068E168382568432D
:1025D00022681018002902D08847002807D0012857
:1025E00003D1A06845432068401900F02BFFA06884
:1025F000451CA56020680028DDD19DE6555010B02F
:1026000080180020445010B0F0B510490A681048F6
:10261000841863790020002B17D0A51D561C0020BC
:102620000C4C04E0235433180B602B5C401CDFB2CD
:10263000002F07D00A2F02D03028F3D902E0121859
:10264000521C0A60002121540120F0BD34190020E1
:10265000441A002099190020B0B5234802210170C6
:10266000224C24487844206004206060224878444A
:1026700020610025E56003202076E56120461830C2
:1026800001F026F9E06101F051F800F087FD00F05B
:102690008BFDA5602068002824D0E0691449884299
:1026A0001ED11FE0606885421CD201F081F900282C
:1026B00018D1A068E16838256843226810180029FD
:1026C00002D08847002807D0012803D1A0684543DD
:1026D0002068401900F0B6FEA068451CA56020687F
:1026E0000028DFD1B0BDC04630190020801800207E
:1026F000445010B0242500003F030000B0B522482C
:1027000000250570214C2348784420600320606038
:10271000214979442161E5602076E5612046183041
:1027200001F0D6F8E06101F001F800F037FD00F0AB
:102730003BFDA5602068002824D0E0691449884248
:102740001ED11FE0606885421CD201F031F90028DB
:1027500018D1A068E168382568432268101800295C
:1027600002D08847002807D0012803D1A06845433C
:102770002068401900F066FEA068451CA56020682E
:102780000028DFD1B0BDC0463019002080180020DD
:10279000445010B0902500002F040000F0B5ADB0FB
:1027A00000262C962B962A967D208000724F786109
:1027B000744C29A806801EAD284602F065F92885CC
:1027C0006E4908420FD01EA90E850F210903014052
:1027D00009221203914203D00322520391427CD179
:1027E00029A9088080E01EA800F017FA2B982C90E9
:1027F00000252B952A982C99C0B289B200F0C2FE10
:102800002C902A952C98002800D18CE020788028E4
:1028100000D08BE06078022800D080E0A078802192
:102820000143802900D0A0E057480078012805D155
:10283000564801F009F800205349087054480560D3
:10284000207920184571FFF7DFFE012051490870FB
:102850005548784438600520786054487844386199
:10286000FD6003203876FD613846183001F030F8FD
:10287000F86100F05BFF00F091FC00F095FCBD609A
:102880003868002824D0F8694349884217D11FE0EE
:10289000B868F968382568433A681018002902D0EA
:1028A0008847002807D0012803D1B8684543386815
:1028B000401900F0C7FDB868451CBD6038680028A5
:1028C00006D07868854203D201F072F80028DFD084
:1028D00010202A9901432A9111E0294908400D212D
:1028E000C902014329A801802998000A2B99605444
:1028F00029982B99611848702B98801C2B9000F018
:10290000FBFA1EA9884203D100F0F8FA00F085F91D
:102910001EA8008D002800D14BE700F0E8FAFF2840
:1029200008D12DB0F0BD1E4800F0E1FA372040027A
:1029300000F0DDFA04281BD101AC1A4979442822A1
:10294000204600F020FA0BAD083508342846214611
:1029500000F0E6F80B4820242946224600F013FA3E
:102960002B940920000300F0C2FA0C4800F0BFFAD3
:102970006D20000200F0BBFA80180020FFFF00006D
:10298000FF070000441A002038190020CC1900204D
:102990003419002030190020445010B0866A00001D
:1029A0008269000044260000EE24000001030000BC
:1029B000F0B59BB0012680245249884200D190E0B6
:1029C0005149884200D099E0514D2B790027684643
:1029D00007606A1D4F483946FFF7C8FAA878A04239
:1029E000089775D113A8694608604A4801210691E5
:1029F0000025474A2B46FFF7B9FA09AF4749794402
:102A000028223846079700F0BEF961203870202050
:102A100002900A900494404C684604603D48074682
:102A200006993B4A2B46FFF7A1FA384600F00CFF07
:102A300068460560384629462246029F3B46FFF716
:102A400095FA21462031059168460160079A0832BF
:102A50000792304806993B46FFF788FA3F20215CF1
:102A600001404022039211432154E05DF8210140CE
:102A7000E15527482946059A2B46FDF723FB2548B3
:102A800000F0E2FE6846056022482946204D2246B5
:102A90003B46FFF76BFA4034684604601D480699D0
:102AA0002A463B46FFF762FA28462146059A079BCD
:102AB000FFF7DCF8284620302146049C3A4600F017
:102AC00062F92878F0210140297010480670039FB0
:102AD0001034EC553E430898A855701C81B2202054
:102AE00008E00A4806700A4869210170611D4170BA
:102AF0002020022100F046FDFFF700FE00201BB061
:102B0000F0BDC0460100008002000080381900209E
:102B1000441A0020CC190020391900208225000019
:102B200080B50A46D17F3F230B4040211943D1771E
:102B30001178F8230B40137000210B46FDF7C2FA01
:102B400080BD000080B5022101430448814202D1CA
:102B5000002000F0A7FE002080BDC04603000080DA
:102B6000B0B52649884236D02549884244D1FFF77E
:102B70004BFD00283ED000F011FB00F015FB234C6C
:102B80000020A0602168002936D0E169204A9142E6
:102B90001ED131E0616888422ED200F009FF002882
:102BA0002AD1A068E16838256843226810180029F6
:102BB00002D08847002807D0012803D1A0684543E8
:102BC0002068401900F03EFCA068401CA06021680D
:102BD0000029DFD110E00B48012101700A4869216A
:102BE0000170852141702020022100F0CBFCFFF70D
:102BF00085FD01E0FFF730FD0020B0BD0100008041
:102C00000200008038190020441A0020801800209B
:102C1000445010B000208146704781467047000044
:102C2000F0B581B000920F460546494B9F420FD048
:102C3000474C40262046314601F090FE009840283F
:102C4000024600D332462046394600F09CF8404BFD
:102C5000987801280BDC00282AD001286AD1D81CDA
:102C600004211C4600F0BCFD402120462BE0022838
:102C700027D005285ED11879D97809020143354A51
:102C80001068002481425BD1334E00988019071FE1
:102C9000106800281AD03946314030480268914205
:102CA00000D907683A4632402D480068591D31E086
:102CB00000249C715C711C71DC7040211846A8478F
:102CC0003EE023484021A847002439E0987959790B
:102CD00009020143234801600168412292009142A8
:102CE0002ED801681D4801601D491F4A0A605978A5
:102CF0001A7812020A431D490A601D49009A5718A2
:102D0000394631400268914200D907683A4632405C
:102D1000D91D154800F037F8374011480168C91926
:102D200001600E480168C91B01600A480146086835
:102D3000401C08600948016801200224002903D1D1
:102D40000448002101602046C0B201B0F0BDC04679
:102D5000781B0020381A0020FFFF0000401A0020D6
:102D6000481B00203C1A0020441A00204C1B002065
:102D7000F9FF010080B50B46002A03D011461A4620
:102D800001F0F6FD80BDB0B588420DD9002A14D0FF
:102D9000491E5242401E0023DB431C4654430D5D36
:102DA0000555521CF9D108E0002A06D000239CB238
:102DB0000D5D05555B1C521EF9D1B0BD01480021C7
:102DC00001607047381A0020F0B581B0294F39688A
:102DD000002926D00090284C661D3925304629460A
:102DE00001F0BCFD25480168090A21700068607087
:102DF0000520A070224A1068000AE0701068207157
:102E000011683868002914D014463B253B2800D8A7
:102E10003D681C48016830462A46FFF7B4FF009A17
:102E200018E017480021016016480160164801703B
:102E30001DE01646392800D83D683868000A6071E0
:102E40003868A0710F480168E01D2A46FFF79BFF14
:102E5000009A34460B480168491901603868401BE4
:102E600038602068401C206003484021904701B032
:102E7000F0BDC046401A0020781B00204C1B0020EB
:102E8000381A0020481B0020661B002080B500294E
:102E90000BD0064A00231360054A064B1360064A0E
:102EA0001160064A1160FFF78FFF80BD381A0020BD
:102EB000481B0020441A0020401A00203C1A002021
:102EC00070B5431E491E52420020C443002A0CD054
:102ED000264656438D5D9E5D521CAE42F6D00020C4
:102EE000C1430120AE4200D80846C0B270BD80B5D3
:102EF0000146484601F0D4FD484670470020494647
:102F0000002900D04869704780B500F051FD0028C5
:102F10000BD10648602101700021417002228270AD
:102F2000C1700171052100F02DFD80BD0018002049
:102F300010B51948C078032807DC01280DD00228F5
:102F400026D1164801F037F810BD04281DD00828F6
:102F50001ED1124801F02DF810BD104C0121204661
:102F600001F022F8204600F0FEFF0D48007800280E
:102F70000FD10C48002407222146FFF7FBFE0A4828
:102F80000E222146FFF7F6FE10BD044801F00FF8AF
:102F900010BD1020FFF7ABFF00180020C01B002061
:102FA000501B0020511B0020581B00207F21014096
:102FB0000148405C7047C046511B002010B51548C1
:102FC0000179042917D0022906D0012920D1811DB9
:102FD000124800F0C1FE10BDC2787F2111400629C1
:102FE00016D8C9B24A000E4B00249C52821D0B48D1
:102FF00000F040FF10BDC2787F211140062907D89C
:103000004279C9B2044B5A54821D044800F0D3FEE1
:1030100010BDC04600180020511B0020C01B00201E
:10302000581B002070B515460E460446FF2D1AD8D1
:103030000D4850210170E91C0A0A427081708021FC
:103040002143C170202101714571062100F09AFCD5
:103050003046294600F096FC7F20204040007D212C
:103060000901024A115270BD00180020581B0020AF
:1030700080B50A46014682201423FFF7D3FF80BDA6
:1030800080B50E480178002916D10D4906220A7034
:103090000A2101700B4882784178090211438B089C
:1030A00041229200412B00D31146074A1180128819
:1030B000C11C0648FFF767FE80BDC046661B0020A6
:1030C000501B002000180020681B0020441A00201C
:1030D000B0B51E48827841780902114300780F2864
:1030E00009DC0E280ED00F281FD10020012926D17F
:1030F000FFF71EFF22E010281BD0162815D1FFF77E
:10310000BFFF1BE0002012490A1A9389002B09D047
:103110006424642B1D4600D325465B1B93810D4A16
:1031200013420DD0801C0E28EED10220FEF772FF54
:10313000B0BD0020032902D3FFF740FF0120B0BD3E
:103140000548002101701020FFF7D1FE0018002073
:10315000581B0020FFFF0000661B002010B509204F
:1031600000F0FEFA0748002404700748048007486E
:103170000470FFF723FE0648046006480460064812
:10318000046010BD661B0020681B0020501B00203F
:103190006C1B0020701B0020741B002001480021C4
:1031A000016070476C1B002002480021016002484A
:1031B00001607047701B0020741B0020B0B50D46E5
:1031C0000446206B00280CD000F0B2FA01462046DD
:1031D000884700F0ADFA0021002810D0012800D067
:1031E0000446002D07D02046A8470021002806D01D
:1031F000012800D004462046FEF708FF01210846BA
:10320000B0BDB0B58EB00D460446606B00280CD042
:1032100000F08EFA01462046884700F089FA002126
:1032200000281BD0012800D00446002D08D02046DD
:10323000A8476C460021002810D0012800D0044681
:103240006D46382228462146FFF79DFD606A0490AE
:10325000A06A05902846FEF7D9FE012108460EB067
:10326000B0BDB0B50D460446E06A00280CD000F0B1
:103270005FFA01462046884700F05AFA00210028EC
:1032800010D0012800D00446002D07D02046A847C2
:103290000021002806D0012800D004462046FEF771
:1032A000B5FE01210846B0BDF0B587B00293039288
:1032B0000591002977D004900D9801900C9800900A
:1032C00000253C4B06952F461E4600F071FB00285A
:1032D00055D138206843049C251833461A680121CB
:1032E000954200D0069906912056002841DA202008
:1032F000285C0221695E0A1A039CA24239DC41184B
:10330000EA888918039A8A4233DA04216C5E221A09
:1033100002998A422DDC201829894018029981429D
:1033200027DA1868854210D0186800280DD0019857
:10333000002805D02846019988473346002818D030
:1033400018680199FFF73AFF08E00098012809D0B2
:1033500002280ED128460199FFF783FF3346002843
:1033600007D022E028460199FFF74BFF334600289B
:103370001ED17F1CFDB205988542A5D300E03346DF
:10338000069800060FD0186800280CD000F010FB3B
:103390003146002807D108680199FFF70FFF002880
:1033A00001D00020306007B0F0BD00201860FAE7BF
:1033B0001D60F8E76C1B0020F0B589B00C46014693
:1033C00002AD1C2228460192FFF7DDFC2168E9804E
:1033D00062682A81A0681A4F65233B7092B242430B
:1033E0008BB25343D9084E1C0722134200D10E461C
:1033F000314600910426864070181D30010A79700C
:10340000B8700321384600F0BDFA2846019900F053
:10341000B9FAA06838700121384600F0B3FAE068C4
:1034200000F086F9B1B200F0ADFA009885B22069DB
:1034300000F07EF9294600F0A5FA09B0F0BDC046BB
:103440000018002070B5044620787F26064000F062
:10345000AFFA002830D1002E2ED0E06900281DD010
:1034600000F066F90546052E02D1A07E002824D082
:10347000284601F023FB06461248652101703146BB
:103480001C310A0A42708170032100F07BFA1C2172
:10349000204600F077FAB1B228460BE009486521D2
:1034A0000170002141701C258570032100F06AFA2B
:1034B0002046294600F066FA70BD20462946FFF7EF
:1034C0007BFF70BD00180020F0B581B00446002CD1
:1034D0002BD0174802688A4203D1164A13685B1C36
:1034E000136006680E43134A1568134F002901D074
:1034F000066004E00023036013607B1C1E43006829
:10350000884201D000201060082D0BD303212846EB
:1035100001F0F2F9012080073043002900D0304645
:10352000384000E030462946A04701B0F0BDC04613
:10353000701B0020741B0020FFFFFF7FF0B581B0DF
:103540000F4E01243470B11C812047007A1C2046A4
:1035500000F000FA054675707A1B7719F91C0220F5
:1035600000F0F8F9B8702D187619F47000F0C6F96B
:103570003071902070710020B071E81D01B0F0BD75
:10358000441A0020F0B583B00722104206D0074647
:10359000F8B2FEF719FD80B203B0F0BD0192584CAD
:1035A000584D074610E09020574908704E70029A17
:1035B0001743022101980242384605D0E8E7FFF799
:1035C000BDFF014630463746102606400A040290E9
:1035D00049D0002E47D1207807280BD00A280FD0D9
:1035E000002800D185E0F8B289B2FEF7EDFC002892
:1035F00024D07EE089B24C487844FFF747FC1DE0B8
:10360000FF2006308FB2874276D253202870380AC6
:103610006870A9700321284600F0B4F93A48394689
:1036200000F0B0F90020207008E0FFF76DFC802169
:103630000022284600F0D2F9FFF74AFD2078002842
:10364000F3D1002020703149087031490880029977
:103650008906A0D4FFF758FC0298010603D5012083
:1036600000F020F90298002E05D140063CD400203D
:1036700020702649087000202549088000F098F93C
:10368000002801D1FFF740FC802700262846394654
:10369000324600F0A3F9022806D8A9786A78120207
:1036A0000A43C01E904209D1FFF712FD207800287E
:1036B000E4D0174800880028E0D002E00020207005
:1036C000DAE70422104814A1FFF7FAFB002800D122
:1036D00075E704220C4812A1FFF7F2FB002800D185
:1036E00061E70B48008856E70948008809494018F7
:1036F00051E70920FFF7FBFB0220FFF7F8FBC0466C
:10370000661B002000180020441A0020501B0020D7
:10371000681B0020FBFF0000B0010000000000005B
:10372000B0A700000000000075FAFFFF704700001E
:1037300080B50449884204D30349884201D200F08D
:1037400005F880BD0000D0C0C04FD0C07A46024905
:10375000C91C891A401A70474D37D0C001DF704725
:1037600080B582B0009007486946FFF7F7FF01AACD
:1037700011600549884201D102B080BD0420FFF7E5
:10378000B6FBC04637010060C601009080B582B02C
:10379000064801A9FFF7E2FF6A4611600449884222
:1037A00001D102B080BD0420FFF7A1FB0002006040
:1037B000F102009080B584B000AB07C306486946AB
:1037C000FFF7CCFF03AA11600449884201D104B07D
:1037D00080BD0420FFF78BFB7F030060BC030090DB
:1037E00080B584B001900291074801A9FFF7B6FFA8
:1037F00003AA11600549884202D1039804B080BD34
:103800000420FFF774FBC0462C050060670500909C
:1038100080B588B001AF0FC70A9805900B98069045
:10382000074801A9FFF79AFF07AA116005498842D6
:1038300002D1079808B080BD0420FFF758FBC046AE
:103840003B070060AD07009080B582B0009007484C
:103850006946FFF783FF01AA11600549884202D13A
:10386000019802B080BD0420FFF741FBDB0A006035
:10387000640A009080B586B001AF0FC7074801A960
:10388000FFF76CFF05AA11600549884202D105982F
:1038900006B080BD0420FFF72AFBC0462E2F006033
:1038A000742F009080B582B0009007486946FFF7FA
:1038B00055FF01AA11600549884201D102B080BDBF
:1038C0000420FFF714FBC046E16200606F620090C5
:1038D00080B582B0009007486946FFF73FFF01AA14
:1038E00011600549884202D1019802B080BD0420D0
:1038F000FFF7FDFA586400601F64009080B582B045
:10390000074801A9FFF72AFF6A4611600549884266
:1039100002D1009802B080BD0420FFF7E8FAC0464B
:103920006E6800607F68009080B582B0074801A98A
:10393000FFF714FF6A4611600549884202D10098DA
:1039400002B080BD0420FFF7D2FAC046D66A0060FC
:10395000446A009080B584B000AB07C3074869464D
:10396000FFF7FCFE03AA11600549884202D10398C3
:1039700004B080BD0420FFF7BAFAC046D4700060DE
:103980008770009080B584B001900291064801A92B
:10399000FFF7E4FE03AA11600449884201D104B094
:1039A00080BD0420FFF7A3FA1C720060F372009040
:1039B00080B582B0074801A9FFF7D0FE6A461160C2
:1039C0000549884202D1009802B080BD0420FFF76B
:1039D0008EFAC046CF7300607F73009080B584B0CC
:1039E00000AB07C307486946FFF7B8FE03AA11609A
:1039F0000549884203D103A8008804B080BD042093
:103A0000FFF775FAD17400602B7400900249002012
:103A10000860024908607047B81B0020BC1B0020EA
:103A200010B507484F2101700024447001218170B6
:103A30000221C1700421FFF7A5FF204610BDC0463A
:103A40000018002070B582B06D464F262E700024FD
:103A50006C700220A8700320E8702C7105212846A4
:103A6000FFF790FF2E706C700120A870E8700421A1
:103A70002846FFF787FF204602B070BD10B582B020
:103A800001A84F210170002444700121817002219E
:103A9000C1700421FFF776FF204602B010BD000080
:103AA000B0B582B00E48002404600E480460684639
:103AB0004F2505704470052585700425C5700125C6
:103AC00005714171032A02D8D000074CC4406846F2
:103AD0008471C3710821FFF755FF002002B0B0BD0B
:103AE000B81B0020BC1B00200104030210B582B0EB
:103AF00068464F220270002444700522827004221E
:103B0000C2700122027141718471C4710821FFF7F2
:103B100039FF204602B010BDB0B582B00D466846F0
:103B2000502101700024447003218170C570402130
:103B3000017144710621FFF725FF8020054201D164
:103B4000074800E0054801687F2215400122AA408D
:103B50000A430260204602B0B0BDC046B81B002038
:103B6000BC1B002070B582B00D4668465021017024
:103B70000024447003218170C57080260671447151
:103B80000621FFF7FFFE354201D1074800E0054856
:103B900001687F2215400122AA409143016020461E
:103BA00002B070BDB81B0020BC1B00208020014269
:103BB00001D0064800E0044800687F22114001223D
:103BC0008A400240D0B27047BC1B0020B81B0020C6
:103BD00010B582B068464F22027000244470022261
:103BE00082700322C27001710521FFF7CBFE2046CF
:103BF00002B010BDB0B582B01C46154668465022D2
:103C00000270E21C130A43708270C170202101719E
:103C100044710621FFF7B6FE28462146FFF7B2FEA3
:103C2000002002B0B0BD10B582B0684650230370CA
:103C30000024447003238370C170302101714271EC
:103C40000621FFF79FFE204602B010BD70B5154655
:103C50000E4604460220002C11D04D208100204643
:103C600000F07CFE002E02D0112000012650FC2026
:103C70000121215425702046FFF7C8FE0020C0B264
:103C800070BD70B50446FC20012121544520800000
:103C900025180026F0002858002806D04068FFF7B5
:103CA00047FD0246217920469047761C032EF1D12C
:103CB0002046FFF7E3FE2046FFF7B2FE002070BD6E
:103CC0000223002A07D00023022804D8C0000818C5
:103CD000452189004250D8B2704780B5FFF7B2FE47
:103CE000002080BDF0B581B00C460546452080001F
:103CF0002F1800262846314600F07CF9002808D00D
:103D0000F00038580068FFF713FD024628462146A8
:103D10009047761C032EEDD1002001B0F0BDF0B528
:103D200081B00C460546452080002F180026284605
:103D3000314600F05FF9002808D0F000385840689C
:103D4000FFF7F6FC0246284621469047761C032ED4
:103D5000EDD1002001B0F0BD70B504462120C600B1
:103D6000A519284600F0A7FBF42001212150872047
:103D70004000205AF8216050A15D1F200840022811
:103D800008D001280BD000280ED12046294600F08B
:103D90003FF90EE02046294600F002FB09E02046EC
:103DA000294600F0D8FA04E0802001402046FFF7C1
:103DB000B3FE002070BDF0B583B0029204460191BD
:103DC00000291ED04520800025182646FC360027F5
:103DD0002046394600F00EF900280ED0F800285889
:103DE0008069002809D03178032906D1FFF7A0FCAB
:103DF000034620460199029A98477F1C032FE7D17A
:103E000035E0F4202058032831D1902020588C210F
:103E1000615822468C3281420AD9091A11608142C6
:103E200000D301468AB22046029900F0C1FC1EE090
:103E30004520800026182746FC37002520462946C5
:103E400000F0D8F800280CD0E800305800690028AD
:103E500007D03978032904D1FFF76AFC01462046D0
:103E600088476D1C032DE9D1204600F0A8FC0020F6
:103E700003B0F0BDF0B581B00446009100291DD01B
:103E80004520800027182546FC350026204631466F
:103E900000F0B0F800280DD0F00038584069002834
:103EA00008D02978032905D1FFF742FC02462046B5
:103EB00000999047761C032EE8D151E0F420205859
:103EC000022845D1E069256AA8420BD9401BE06170
:103ED00013210A01A1584919A15082B2204600F0CD
:103EE00059FC35E0A6693046294600F005FDAE4292
:103EF0000FD300290DD1F82020582746F8378642E5
:103F000007D20025204629462A4600F043FC3D60A2
:103F10001EE04520800026182746FC370025204655
:103F2000294600F067F800280CD0E8003058C06837
:103F3000002807D03978032904D1FFF7F9FB01469F
:103F4000204688476D1C032DE9D1204600F043FC34
:103F5000012001026018615C012901D1002101707A
:103F6000002001B0F0BD70B50446902040212150E2
:103F70002162FC20012121544520800026180025C3
:103F80002046294600F036F8002808D0E8003058CE
:103F90004068FFF7CDFB02462179204690476D1C13
:103FA000032DEDD1002070BD01740020704700206A
:103FB00070470020704770B50446FC20205C032841
:103FC00016D145208000261800252046294600F0FD
:103FD00011F8002809D0E8003058C069002804D042
:103FE000FFF7A6FB0146204688476D1C032DECD148
:103FF000002070BD02460020022908D8C800101811
:104000004521890041580120002900D10846704708
:1040100080B54A78042A08DD072A0FDC052A14D067
:10402000062A1BD100F021F81DE0002A10D0012A39
:1040300017D0032A12D100F03BF914E0082A0AD065
:10404000092A0BD100F0C3F80DE000F09BF80AE05C
:1040500000F00BF907E000F0F1F804E000F071F96E
:1040600001E000F044F9002080BDB0B582B00D46FB
:1040700004466988080A052813DC01281CD0022898
:1040800025D003283BD1C8B202283DDC002865D0EA
:1040900001286DD0022832D1112000012058C068BB
:1040A0000EE006281ED0072826D00F2827D1112081
:1040B00000012058C06903E0112000012058006869
:1040C000FFF736FB0246207C01A9904734E04520EB
:1040D00080002058002100282FD0217C002925D0E5
:1040E000C06A24E0207C002809D1452080002058A7
:1040F000002804D0406B1AE0207C00280FD0204616
:10410000294600F01EF927E003282CD0042834D0DB
:104110000528F4D11120000120588069D0E74520FE
:10412000800020580028EAD0006B00E0806AFFF78A
:10413000FFFA014601A88847014601A80288002A23
:104140000AD0E888002807D0824200D3024601A89E
:104150000280204600F008FB02B0B0BD1120000133
:1041600020584068ACE71120000120580069A7E7FB
:104170001120000120588068A2E71120000120587A
:1041800040699DE770B50446888800280BD1C8882F
:10419000002808D148887F260640FC20205C254660
:1041A000FC35032803D1204600F0CBF870BDFE207B
:1041B0002654F1B22046FFF70BFD204600F0FFFA2F
:1041C00002200121002E00D10846287070BD70B574
:1041D0000D460446AE78022E1DD2FC20215C2046FE
:1041E000FC30032907D0022915D1002E22D06660A9
:1041F0000321017009E0002E12D06068864219D0B8
:10420000C1B22046FFF78BFD666020463146FFF7BE
:1042100069FD02280ED12046294600F092F870BDB3
:1042200002210170666020463146FFF778FD204686
:1042300000F0C5FA204600F0C2FA70BD80B5CA8809
:10424000012A0AD1FC22825C032A09D0022A04D165
:10425000002181600146083103E000F072F880BD62
:10426000011D012200F080FA80BDB0B50446FC209B
:10427000205CFE220240022A16D10120E06041208B
:104280008000215825460C350320002905D0204602
:1042900000F0A1FAE16802200843E0600222204613
:1042A000294600F061FAB0BD204600F04AF8B0BDE2
:1042B000B0B50D4604466888012817D1412080001A
:1042C00001212150287902280DD8C000201845214D
:1042D00089004058002806D08068FFF729FA024676
:1042E000204629469047204600F069FAB0BDB0B597
:1042F0000D460446FC20205CFE21014002291BD112
:10430000688801281CD14120800000212150287993
:1043100002280DD8C00020184521890040580028E7
:1043200006D08068FFF704FA0246204629469047E7
:10433000204600F044FAB0BD2046294600F001F8BE
:10434000B0BD10B504468021FFF7E6FB00212046F2
:10435000FFF7E2FB10BDB0B50D460446FC20205C23
:10436000032817D12879022814D8C0002018452125
:104370008900405800280DD08068FFF7D9F902461F
:10438000204629469047E888002807D1204600F0BB
:1043900016FA03E020462946FFF7D3FF0020B0BD00
:1043A00070B50D4604462878602101402E792029F9
:1043B00010D1022E0ED8F000201845218900405857
:1043C000002807D08068FFF7B3F902462046294647
:1043D00090476EE06878002817D001281ED0032887
:1043E00067D1FC20205C03281CD16888002808D1F4
:1043F00080203043802804D020463146FFF78CFBD4
:104400002E79022E52D8F00043E0FC20205C0328D5
:1044100018D0022811D170060AD14AE0FC20205C95
:10442000032829D0022808D180203043802840D09A
:1044300020463146FFF770FB3BE020462946FFF758
:1044400080FF36E0254614352046843080210E4218
:1044500000D1054620463146FFF7A8FB0121002880
:1044600000D101467F200640300129502918022240
:10447000204600F079F91CE06888002819D1700600
:1044800014D020463146FFF76DFB287902280DD85D
:10449000C0002018452189004058002806D08068B7
:1044A000FFF746F90246204629469047204600F08D
:1044B00086F9002070BD0A7802704A7842708A78C6
:1044C000CB781B02134343800A794B791B021343B9
:1044D00083808A79C97909021143C1807047F0B598
:1044E00083B00D46044602A80027078001A8077084
:1044F000297860200840002810D0202838D168781A
:1045000001460A39022933D302281CD003281AD0C5
:1045100020462946FFF715FF022729E068780B2877
:1045200014D00A280FD0062822D16888000A002754
:1045300021280FD022283A46394616D102AE3046FD
:1045400000F052F80AE001A901220EE0204600F036
:1045500036F90DE002AE304600F032F801463288FE
:10456000E888824200D302463280204600F0FCF800
:10457000F8B203B0F0BDF0B581B004468221032645
:10458000402532462B46FFF78BFA02272046394654
:1045900032462B46FFF784FA204639462A46FFF773
:1045A00042FB002001B0F0BD10B504468221FFF7A8
:1045B0009DFA02212046FFF799FA002010BD000065
:1045C000014643208000064A125C09230020002A8D
:1045D00000D003460B80002A01D10248784470477E
:1045E000C01B00207C080000014643208000064AD2
:1045F000125C22230020002A00D003460B80002AF0
:1046000001D1024878447047C01B00205D080000BB
:1046100080B5022903D103487844FEF7D5FB00207A
:1046200080BDC04655EAFFFFB0B5144602291BD134
:1046300002214022FFF7F7FA0C4D2878002813D109
:104640000220FEF7B3FC02460C4878442146FEF7F0
:10465000E7FA022808D101202870054807210170D7
:1046600004480068044908800020B0BD501B0020A9
:10467000661B00203C1A0020681B002023EAFFFF75
:1046800012200880014878447047C0465608000050
:1046900004200880014878447047C046580800004C
:1046A0000E200880014878447047C0464C0800003E
:1046B0000E200880014878447047C0464A08000030
:1046C0000A200880014878447047C0464808000026
:1046D0000E200880014878447047C0462A08000030
:1046E0000E200880014878447047C0461A08000030
:1046F00070B504464D208500104800212A46FEF77B
:1047000039FB002C16D00D4C0026204631462A4697
:10471000FEF730FB0A49794420463246FFF796FA05
:10472000084A7A4430462146FFF7CAFA2046FFF786
:10473000D4FA70BD0148FFF7A4FA70BDC01B002079
:104740006E0700008207000029210180014878449B
:104750007047C046CA0700000A210180014878441A
:104760007047C046E6070000B0B50C46F4210223AE
:1047700043508261C261132109014450016A8A4297
:1047800000D30A4693B2002529462246FFF732FAA3
:104790002846B0BDB0B50C46016A8A4200D30A462D
:1047A00093B2002529462246FFF724FA2846B0BDD9
:1047B00010B500242146FFF736FA204610BD10B58B
:1047C000F421042242500024214622462346FFF7CA
:1047D00011FA204610BD10B5F421052242500024E4
:1047E00021462246FFF71FFA204610BD002243084B
:1047F0008B4274D303098B425FD3030A8B4244D3A9
:10480000030B8B4228D3030C8B420DD3FF220902EA
:1048100012BA030C8B4202D31212090265D0030BA9
:104820008B4219D300E0090AC30B8B4201D3CB039F
:10483000C01A5241830B8B4201D38B03C01A5241E1
:10484000430B8B4201D34B03C01A5241030B8B42E3
:1048500001D30B03C01A5241C30A8B4201D3CB02CE
:10486000C01A5241830A8B4201D38B02C01A5241B3
:10487000430A8B4201D34B02C01A5241030A8B42B6
:1048800001D30B02C01A5241CDD2C3098B4201D3CE
:10489000CB01C01A524183098B4201D38B01C01A4C
:1048A000524143098B4201D34B01C01A52410309C3
:1048B0008B4201D30B01C01A5241C3088B4201D372
:1048C000CB00C01A524183088B4201D38B00C01A1F
:1048D000524143088B4201D34B00C01A5241411A46
:1048E00000D20146524110467047FFE701B5002053
:1048F00000F006F802BDC0460029F7D076E7704701
:104900007047C046F0B54F464646C0B41604360C54
:104910009946330005042C0C070C150C63437E43A9
:104920006F4365431C0CAD1964199C46A64203D91C
:1049300080235B02984647446346250CEF191D040B
:104940004B464A4343432D0C240464199918C91952
:1049500020000CBC90469946F0BDC04610B5002220
:1049600000F006F810BDC04610B500F009F810BD03
:10497000130010B50A00190000F040F810BDC04641
:1049800070B50F2A32D90C0004430B00A40731D1B3
:1049900015000400103D2D0901352D0149191E682F
:1049A00026605E6866609E68A660DE681033E6601A
:1049B00010349942F3D10F2345191340032B1BD90F
:1049C0001C1F0023A4080134A400CE58EE50043369
:1049D0009C42FAD103232D1909191A4005D000234E
:1049E000CC5CEC5401339A42FAD170BD0500002A28
:1049F000F5D1FAE70500F2E71A00F8E770B583078A
:104A00003FD0541E002A3BD0CEB20300032503E062
:104A1000621E002C34D0140001335A1E16702B4233
:104A2000F6D1032C24D9FF250D402A0215432A0470
:104A300015430F2C11D92600103E360901363601D8
:104A40001A009B19156055609560D560103293422D
:104A5000F8D10F221440032C0AD9261FB6080136BC
:104A6000B6001A009B1920C29342FCD103221440C5
:104A7000002C05D0C9B21C19197001339C42FBD11E
:104A800070BD14000300CCE7F0C041464A465346CF
:104A90005C466D4676467EC02838F0C800207047D8
:104AA00010307CC890469946A246AB46B54608C829
:104AB0002838F0C8081C00D10120184710B583071A
:104AC00027D00378002B26D00300032102E01A78B8
:104AD000002A1CD001330B42F9D119680F4A104C3F
:104AE0008A188A4322420FD1043319680B4A8A1864
:104AF0008A43224208D104331968084A8A188A4333
:104B00002242F1D000E001331A78002AFBD1181AB2
:104B100010BD0300E1E70020FAE7C046FFFEFEFEFD
:104B200080808080EDD3F55C1A631258D69CF7A282
:104B3000DEF9DE14000000000000000000000000AC
:104B4000000000107016000050867C006D1A4900AD
:104B50002942D2009E352102195DBF000B3AED02B9
:104B6000AF7CCA0155706302D4005F00689FAEE756
:104B7000D21893C0B2E6BC17F5CEF7A6000000002D
:104B800000000000000000000000008003000000A2
:104B90000000800020000000010000000000000074
:104BA000FFFFFF0000000000000000000000000008
:104BB00000000000000000000000000000000000F5
:104BC00000000000070200000C0080000B00000045
:104BD00000000000FFFFFF00000000000A8000004E
:104BE0006C4CD0C00000000000000000000000007D
:104BF00000000000000000000000000005000300AD
:104C00000C0007000700000000000000FFFFFF008D
:104C1000000000000000070000000000000000008D
:104C20000000000000000000000000000000000084
:104C300000000000050075000D00080006000000DF
:104C400000000000FFFFFF00000000000000060061
:104C50000000000000000000000000000000000054
:104C60000000000000000000000000005369676EB3
:104C7000206D6573736167650057616974696E675C
:104C800020666F72206D657373616765005665728B
:104C900069667920746578740000000003000000E4
:104CA0000000800020000000010000000000000063
:104CB000FFFFFF00000000000000000000000000F7
:104CC00000000000000000000000000000000000E4
:104CD00000000000070200000C0080000B00000034
:104CE00000000000FFFFFF00000000000A8000003D
:104CF000794CD0C00000000000000000000000005F
:104D0000000000000000000000000000050003009B
:104D10000C0007000700000000000000FFFFFF007C
:104D2000000000000000070000000000000000007C
:104D30000000000000000000000000000000000073
:104D400000000000030000000000800020000000C0
:104D50000100000000000000FFFFFF000000000055
:104D60000000000000000000000000000000000043
:104D7000000000000000000000000000070200002A
:104D80000C0080000B00000000000000FFFFFF008F
:104D9000000000000A8000008D4CD0C00000000020
:104DA0000000000000000000000000000000000003
:104DB00000000000070217001A0052000B008A00D2
:104DC00000000000FFFFFF000000000008801A0044
:104DD0009919002000000000000000000000000001
:104DE00000000000000000000000000005000300BB
:104DF0000C0007000700000000000000FFFFFF009C
:104E0000000000000000070000000000000000009B
:104E10000000000000000000000000000000000092
:104E200000000000050075000D00080006000000ED
:104E300000000000FFFFFF0000000000000006006F
:104E40000000000000000000000000000000000062
:104E50000000000000000000000000000921110116
:104E6000000122220006A0FF0901A101090315008B
:104E700026FF007508954081080904150026FF00EB
:104E8000750895409108C0008146D0C09146D0C0B9
:104E9000A146D0C0B146D0C0C146D0C0D146D0C0D6
:104EA000E146D0C0000000007745D0C0A945D0C081
:104EB000DF44D0C000000000000000001146D0C058
:104EC0002946D0C0000000000000000000000000E3
:104ED0004947D0C04947D0C04947D0C05947D0C042
:104EE0001201000200000040972C010000020102A4
:104EF0000301040309040E034C006500640067000D
:104F0000650072000E034E0061006E006F0020000D
:104F100053000A033000300030003100090229003C
:104F2000010102C03209040000020300000209214D
:104F3000110100012222000705820340000107053C
:104F400002034000010000000A06000200000040C9
:104F50000100000000000000000000000000000050
:104F60000000000000000000000000000000000041
:104F70000000000000000000000000000000000031
:104F80000000000000000000000000000000000021
:104F90000000000000000000000000000000000011
:104FA0000000000000000000000000000000000001
:104FB00000000000000000000000000000000000F1
:04000005C0D0000166
:00000001FF
